:100000000C9453000C947B000C947B000C947B00AC
:100010000C947B000C947B000C947B000C947B0074
:100020000C947B000C947B000C947B000C947B0064
:100030000C947B000C947B000C947B000C947B0054
:100040000C94E9010C947B000C9459020C9433023B
:100050000C947B000C947B000C947B000C947B0034
:100060000C947B000C947B0000000000250028000D
:100070002B0000000000240027002A0004040404D0
:100080000404040402020202020203030303030342
:10009000010204081020408001020408102001021F
:1000A00004081020DC0311241FBECFEFD8E0DEBF10
:1000B000CDBF21E0AEE1B1E001C01D92A43CB2078A
:1000C000E1F711E0A0E0B1E0EAE9F8E002C0059054
:1000D0000D92AE31B107D9F710E0C3E5D0E004C00E
:1000E0002197FE010E944504C235D107C9F70E943D
:1000F0008B020C944B040C94000090E0FC01E05740
:10010000FF4F249184589F4FFC018491882399F0DC
:1001100090E0880F991FFC01EE58FF4FA591B49114
:10012000FC01E859FF4F859194918FB7F894EC91B9
:10013000E22BEC938FBF0895FC01538D448D252F46
:1001400030E0842F90E0821B930B541710F0CF9671
:10015000089501970895FC01918D828D981761F0A3
:10016000A28DAE0FBF2FB11D5D968C91928D9F5FBA
:100170009F73928F90E008958FEF9FEF0895FC0199
:10018000918D828D981731F0828DE80FF11D858D4C
:1001900090E008958FEF9FEF08952FB7F894809126
:1001A000230190912401A0912501B09126012FBF38
:1001B00080932F0190933001A0933101B0933201CD
:1001C00087E291E00E94BF0097FF26C02FB7F89406
:1001D0008091230190912401A0912501B0912601E5
:1001E0002FBF40912F0150913001609131017091EA
:1001F0003201841B950BA60BB70B40912B0150913C
:100200002C0160912D0170912E0184179507A6078E
:10021000B707B0F28FEF9FEF0895FC01918D228D0B
:10022000892F90E0805C9F4F821B91098F739927E3
:10023000089587E291E00E940D0121E0892B09F4E5
:1002400020E0822F089580E090E0892B29F00E9421
:10025000190181110C9400000895FC01A48DA80FD0
:10026000B92FB11DA35ABF4F2C91848D90E00196F8
:100270008F739927848FA689B7892C93A089B18918
:100280008C91837080648C93938D848D981306C0B9
:100290000288F389E02D80818F7D80830895EF921D
:1002A000FF920F931F93CF93DF93EC0181E0888F30
:1002B0009B8D8C8D98131AC0E889F989808185FF00
:1002C00015C09FB7F894EE89FF896083E889F989A2
:1002D00080818370806480839FBF81E090E0DF91A4
:1002E000CF911F910F91FF90EF900895F62E0B8DF7
:1002F00010E00F5F1F4F0F731127E02E8C8D8E11B2
:100300000CC00FB607FCFACFE889F989808185FF18
:10031000F5CFCE010E942D01F1CFEB8DEC0FFD2F1B
:10032000F11DE35AFF4FF0829FB7F8940B8FEA89D3
:10033000FB8980818062CFCFCF93DF93EC01888DE2
:100340008823B9F0AA89BB89E889F9898C9185FD50
:1003500003C0808186FD0DC00FB607FCF7CF8C91DE
:1003600085FFF2CF808185FFEDCFCE010E942D0168
:10037000E9CFDF91CF910895AF92BF92CF92DF92F4
:10038000EF92FF920F931F93CF93DF936C017B014A
:100390008B01040F151FEB015E01AE18BF08C017DB
:1003A000D10759F06991D601ED91FC910190F0814E
:1003B000E02DC6010995892B79F7C501DF91CF9111
:1003C0001F910F91FF90EF90DF90CF90BF90AF9073
:1003D00008951F920F920FB60F9211242F933F93FF
:1003E0008F939F93AF93BF938091230190912401AA
:1003F000A0912501B09126013091220123E0230F25
:100400002D3758F50196A11DB11D2093220180932F
:10041000230190932401A0932501B093260180919C
:100420001E0190911F01A0912001B0912101019620
:10043000A11DB11D80931E0190931F01A093200167
:10044000B0932101BF91AF919F918F913F912F91D7
:100450000F900FBE0F901F90189526E8230F02965D
:10046000A11DB11DD2CF1F920F920FB60F92112472
:100470002F933F934F935F936F937F938F939F93AC
:10048000AF93BF93EF93FF9387E291E00E942D011A
:10049000FF91EF91BF91AF919F918F917F916F915C
:1004A0005F914F913F912F910F900FBE0F901F9032
:1004B00018951F920F920FB60F9211242F938F93BE
:1004C0009F93EF93FF93E0913701F0913801808182
:1004D000E0913D01F0913E0182FD1BC09081809131
:1004E00040018F5F8F7320914101821741F0E091AD
:1004F0004001F0E0E95DFE4F958F80934001FF9150
:10050000EF919F918F912F910F900FBE0F901F90A1
:1005100018958081F4CFCF93DF93CDB7DEB7A19745
:100520000FB6F894DEBF0FBECDBF789484B582605D
:1005300084BD84B5816084BD85B5826085BD85B587
:10054000816085BD80916E00816080936E00109205
:100550008100809181008260809381008091810080
:100560008160809381008091800081608093800011
:100570008091B10084608093B1008091B00081606F
:100580008093B00080917A00846080937A0080919B
:100590007A00826080937A0080917A0081608093F3
:1005A0007A0080917A00806880937A001092C1006E
:1005B000E0913701F091380182E08083E0913301CE
:1005C000F09134011082E0913501F09136018FEC09
:1005D000808310923F01E0913B01F0913C0186E065
:1005E0008083E0913901F0913A01808180618083BC
:1005F000E0913901F0913A01808188608083E09137
:100600003901F0913A01808180688083E09139015D
:10061000F0913A0180818F7D808302E111E09AE1BF
:10062000E92E91E0F92EF80181918F010E947D0061
:10063000E016F106C1F784E00E947D008AE0882E72
:10064000912CA12CB12C00E010E087E291E00E94F7
:100650000D01181619060CF081C00E94CD00FC0196
:1006600097FD90C08D32910521F0C0970A9708F050
:1006700081C0C12CD12C7601712CE130F105D9F06B
:10068000ED32F10509F47BC0CF01C0970A9798F4C9
:10069000AAE0B0E0A70196010E9409046F01FF0FD4
:1006A000EE08FF08C60ED71EE81EF91EF0E3CF1AAB
:1006B000D108E108F10887E291E00E94AB000E94B6
:1006C000CD00FC01C0970A97C0F2E130F105A9F214
:1006D000772041F0F094E094D094C094C11CD11CD8
:1006E000E11CF11C0D2C000CEE08FF08F7FE4EC0BB
:1006F0006DE287E291E00E944F0122273327A90192
:100700002C193D094E095F0919A2CE0181967C0181
:10071000CA01B901A50194010E942304605DF7019B
:1007200062937F01211531054105510589F7E114D7
:10073000F10461F001900020E9F73197AF014E1903
:100740005F09B70187E291E00E94BC0142E050E0FE
:100750006AE171E087E291E00E94BC010115110598
:1007600009F473CF0E941901882309F46ECF0E9407
:1007700000006BCF87E291E00E94AB006ECF772440
:10078000739499CFC12CD12C7601ACCFA7019601DF
:1007900019A2CE0181967C01CA01B901A50194017B
:1007A0000E942304605DF70162937F0121153105EA
:1007B0004105510589F7BBCFE7E2F1E013821282D0
:1007C00088EE93E0A0E0B0E084839583A683B783AE
:1007D00084E091E09183808385EC90E09587848725
:1007E00084EC90E09787868780EC90E0918B808BFB
:1007F00081EC90E0938B828B82EC90E0958B848BE4
:1008000086EC90E0978B868B118E128E138E148E51
:1008100008950E941404A59F900DB49F900DA49F6D
:10082000800D911D11240895A29FB001B39FC001B6
:10083000A39F700D811D1124911DB29F700D811D0C
:100840001124911D0895A1E21A2EAA1BBB1BFD01C4
:100850000DC0AA1FBB1FEE1FFF1FA217B307E4079F
:10086000F50720F0A21BB30BE40BF50B661F771FF7
:10087000881F991F1A9469F76095709580959095D7
:100880009B01AC01BD01CF010895EE0FFF1F059044
:0A089000F491E02D0994F894FFCFD5
:10089A00000000004F01BC019C009C010D01AB004F
:0E08AA00BF0005060708090A0B0C0D0A000026
:00000001FF
