:100000000C948F000C94B7000C94B7000C94B700BC
:100010000C94B7000C94B7000C94B7000C94B70084
:100020000C94B7000C94B7000C9474030C94E30385
:100030000C94B7000C94B7000C94B7000C94B70064
:100040000C94B7000C94B7000C94B7000C94B70054
:100050000C94B7000C94B7000C94B7000C942A03CE
:100060000C94B7000C94B7000C94B7000C94B70034
:100070000C94B7000C94B7000C94B7000C94B70024
:100080000C94B7000C94B7000C94B7000C94B70014
:100090000C94B7000C94B7000C94B7000C94B70004
:1000A0000C94B7000C94B7000C94B700080B000236
:1000B0000202000009040000010202000005240001
:1000C0001001052401010104240206052406000193
:1000D0000705810310004009040100020A00000026
:1000E00007050202400000070583024000000403E8
:1000F000090412010002EF02014041234180000186
:100100000102030141726475696E6F204C4C43001B
:1001100041726475696E6F2059756E001506112461
:100120001FBECFEFDAE0DEBFCDBF11E0A0E0B1E04F
:10013000E6ECFDE002C005900D92AC32B107D9F7B4
:1001400021E0ACE2B1E001C01D92AB39B207E1F7AA
:1001500010E0CFE8D0E004C02197FE010E94DB064A
:10016000CE38D107C9F70E942A060C94E1060C94F8
:100170000000FC0180919A01882311F13FB7F894A7
:1001800082E08093E9002091F200822F90E018161F
:10019000190614F481E090E0882339F0289844E6A9
:1001A000409399014091F1004083222339F020913E
:1001B000F200211103C02BE62093E8003FBF089511
:1001C0008FEF9FEF08952FB7F89483E08093E900B5
:1001D0009091E800892F807295FF04C09091F20001
:1001E00080E4891B2FBF08958091910181110DC07A
:1001F00082E080938D0184E080938E0110929001C3
:1002000010928F0181E0809391018DE891E0089533
:100210003FB7F8948091890190918A01A0918B0158
:10022000B0918C0126B5A89B05C02F3F19F001960F
:10023000A11DB11D3FBFBA2FA92F982F8827BC0140
:10024000CD01620F711D811D911D42E0660F771F68
:10025000881F991F4A95D1F708958F929F92AF9268
:10026000BF92CF92DF92EF92FF924B015C010E940E
:1002700008016B017C010E9408016C197D098E093F
:100280009F09683E734081059105A8F321E0821A19
:100290009108A108B10888EEC80E83E0D81EE11CC1
:1002A000F11C81149104A104B10429F7FF90EF908F
:1002B000DF90CF90BF90AF909F908F900895409126
:1002C0007E0150917F0120917C0130917D01421788
:1002D0005307B4F49091E8009570E1F39091E80031
:1002E00092FD19C08093F10080917E0190917F0171
:1002F00001968F739927892B19F48EEF8093E8006C
:1003000080917E0190917F01019690937F0180936F
:100310007E0181E0089580E00895EF92FF920F93AF
:100320001F93CF93DF93F82E192FE62E042F81E031
:10033000860F880F0E945F0183E00E945F01CF2D2E
:10034000D12FEC0EFD2EF11CCE15DF05B9F007FF05
:1003500013C0FE0184910E945F01182F80E00E946B
:100360005F01812321968111EFCFDF91CF911F9102
:100370000F91FF90EF9008958881EDCF81E0F5CF48
:10038000DF92EF92FF920F931F93CF93DF93D82EBC
:100390008A01EB017B01E40EF51ECE15DF0559F055
:1003A000D7FE12C0FE0184910E945F012196811147
:1003B000F4CF0FEF1FEFC801DF91CF911F910F9185
:1003C000FF90EF90DF9008958881EECF0F931F93F9
:1003D000CF93DF931F92CDB7DEB782E0898342E4EB
:1003E00050E06CEA70E080E80E94C0010E94F400D6
:1003F000DC0112960D911C910115110589F0D801AF
:10040000ED91FC910280F381E02DBE016F5F7F4F83
:10041000C801099597FD04C0F80100851185ECCF4E
:1004200089810F90DF91CF911F910F9108956150B5
:1004300030F02091F100FC0120830196F8CF28983C
:1004400084E68093990108958F929F92AF92BF9214
:10045000CF92DF92EF92FF920F931F93CF93DF9390
:100460006C017B018A0180910B01882309F45CC037
:1004700080919A01882309F457C08091820180FFFE
:1004800005C08091E00082608093E000E801B12C1B
:100490008AEFA82E93E0892E2AE3922E209711F45A
:1004A000BB20D9F10E94E30081110AC0AA94AA20BE
:1004B000D9F161E070E080E090E00E942D01EECF84
:1004C0008C171D0611F00CF08C2F9FB7F8948092BA
:1004D000E9002091E80025FD02C09FBFDFCF282F53
:1004E00030E0C21BD30BF701815020F041914093C3
:1004F000F100FACFE20EF31EBB2021F09092E8004B
:10050000B12CEBCF8091E80085FDE7CF9092E80019
:10051000BB24B394209709F3F3CF5D9884E68093CE
:100520008301101611063CF081E090E0F601938300
:10053000828310E000E0C801DF91CF911F910F91FD
:10054000FF90EF90DF90CF90BF90AF909F908F90F3
:100550000895CF93DF931F92CDB7DEB76983DC0197
:10056000ED91FC910280F381E02D41E050E0BE016D
:100570006F5F7F4F09950F90DF91CF91089583E0D2
:100580008093E9008091F200882319F08AE3809338
:10059000E80008950E94E30090E00895CF93DF9370
:1005A0001F92CDB7DEB7FC018485958597FD08C005
:1005B0002FEF3FEF358724870F90DF91CF9108957C
:1005C000CE0101960E94B900019719F4898190E04B
:1005D000F3CF8FEF9FEFF0CF0F931F93CF93DF9366
:1005E0001F92CDB7DEB78C01FC018485958597FFFE
:1005F0000BC0CE0101960E94B900019771F4898168
:1006000090E0F80195878487F801848595850F909F
:10061000DF91CF911F910F9108958FEF9FEFF1CF51
:10062000FC018485958597FD0BC09FB7F89482E007
:100630008093E9008091F2009FBF90E001960895B9
:100640009FB7F89482E08093E9008091F2009FBF09
:1006500090E008951F920F920FB60F9211242F93DE
:100660003F938F939F93AF93BF9380918501909118
:100670008601A0918701B09188013091840123E027
:10068000230F2D3758F50196A11DB11D209384012C
:100690008093850190938601A0938701B093880190
:1006A0008091890190918A01A0918B01B0918C0178
:1006B0000196A11DB11D8093890190938A01A09399
:1006C0008B01B0938C01BF91AF919F918F913F911E
:1006D0002F910F900FBE0F901F90189526E8230FB3
:1006E0000296A11DB11DD2CF1F920F920FB60F928D
:1006F00011248F939F938091E1009091E100937F6B
:100700009093E10083FF0FC01092E90091E0909375
:10071000EB001092EC0092E39093ED0010929A019E
:1007200098E09093F00082FF22C093E09093E9005C
:100730009091F200992319F09AE39093E800909138
:100740008301992341F0909183019150909383010B
:10075000911101C05D9A90919901992341F0909176
:100760009901915090939901911101C0289A84FFA9
:1007700018C08091E2008E7E81608093E2008091BB
:10078000E1008F7E8093E100809182018E7E806106
:10079000809382019F918F910F900FBE0F901F90B9
:1007A000189580FFF7CF8091E2008E7E8061809364
:1007B000E2008091E1008E7E8093E10080918201D1
:1007C0008E7E8160E5CF1F920F920FB60F9211249B
:1007D000CF92DF92EF92FF920F931F932F933F934D
:1007E0004F935F936F937F938F939F93AF93BF9339
:1007F000EF93FF93CF93DF93CDB7DEB76C97DEBF58
:10080000CDBF1092E9008091E80083FF25C068E029
:10081000CE0145960E94170282EF8093E8008D89F1
:1008200087FF39C09091E80090FFFCCF982F907619
:1008300009F034C19E894F89588D2F89F88C911108
:1008400031C0803861F5809181018093F100109270
:10085000F1008EEF8093E8006C960FB6F894DEBF3F
:100860000FBECDBFDF91CF91FF91EF91BF91AF91BF
:100870009F918F917F916F915F914F913F912F91B8
:100880001F910F91FF90EF90DF90CF900F900FBED0
:100890000F901F9018959EEF9093E800C7CF10928D
:1008A000F100D5CF913059F48111D3CF41305105AA
:1008B00081F6809181018D7F80938101CACF933031
:1008C00049F48111C6CF4130510519F6809181015B
:1008D0008260F2CF953041F48091E80080FFFCCF38
:1008E00020682093E300B5CF963009F0A9C00B8DA6
:1008F0001C8D22E01092E90010927F0110927E017F
:10090000F2122EC010927D0110927C010E94E6012D
:100910001F8299E09983FA8291E09E8390EA9887FA
:100920009AEF998720917E0130917F01275F3F4F99
:100930003C832B838D831092E90010927F011092EB
:100940007E0110937D0100937C0149E050E0BE01DF
:100950006F5F7F4F80E00E94C0010E94E60179CF67
:1009600010937D0100937C010E94F400DC0112963B
:100970000D911C910115110509F451C1D801ED919A
:10098000FC910480F581E02DBE016B5E7F4FC801B4
:100990000995009709F03EC1F80100851185EACF5D
:1009A000F3E0FF120EC08F89882309F440C0823023
:1009B00061F440E86BE080E191E00E948D018111DB
:1009C00048CF81E28093EB0047CF813029F440E8A3
:1009D0006BE084E091E0F1CF833099F70E94F4005E
:1009E000DC011296ED90FC908E010F5F1F4F6801A5
:1009F000E114F10479F0D701ED91FC910680F781C3
:100A0000E02DB801C7010995080F111DF701E08419
:100A1000F184EECFD8011C92F60101900020E9F795
:100A20003197BF016C197D0940E0C601C6CF6EEE5B
:100A300070E0FB01449150E080E80E94C00109CFC2
:100A4000973009F4BECF983021F481E08093F10013
:100A500000CF993009F0FDCE837009F0B2CFEFE1FD
:100A6000F1E081E031E096E32191222371F080935F
:100A7000E9003093EB00DF0111972C912093EC00FB
:100A80009093ED008F5F873079F78EE78093EA00CF
:100A90001092EA008F8980939A01DBCE8B8D9C8D1A
:100AA0001092E90010927F0110927E0190937D01D7
:100AB00080937C01898D811192C08E899D89913AA4
:100AC00049F4813209F07DCF47E050E064E071E005
:100AD00080E0B3CF913209F074CF833269F48F890B
:100AE000988DB0E0A0E08093000190930101A09365
:100AF0000201B0930301ADCE803269F48091E80029
:100B000082FFFCCF67E084E091E00E9417028BEF48
:100B10008093E8009ECE823209F09BCE8F8980932D
:100B20000B01EEEFFFE7859194918B3F9C4D51F1C6
:100B3000E0E0F8E08091040190910501A0910601A8
:100B4000B0910701803B9440A105B105F1F480917B
:100B50000B0180FD1AC0EE3F8AE0F80789F587E7B0
:100B600097E791838083809160008093800188E182
:100B70009BE00FB6F894A895809360000FBE909309
:100B8000600067CEEEEFFAE0D5CF808191818737A4
:100B9000974709F05ECEA8958091600088618093A8
:100BA00060008091800180936000EE3F2AE0F207B0
:100BB00089F08091FE0A9091FF0A9183808349CE4B
:100BC000808191818737980751F29093FF0A809333
:100BD000FE0AC5CF1092FF0A1092FE0A3ACE0E947A
:100BE000F400DC0112960D911C910115110509F418
:100BF000E8CED801ED91FC910190F081E02DBE018D
:100C00006B5E7F4FC8010995811123CEF8010085E5
:100C10001185EBCF181619060CF41BCED2CEF1E0DD
:100C2000FF12BECE62EF70E004CFECE2F1E013827F
:100C3000128288EE93E0A0E0B0E084839583A683DF
:100C4000B78380E191E0918380838FEF9FEF958759
:100C500084870895789484B5826084BD84B581606A
:100C600084BD85B5826085BD85B5816085BD809177
:100C70006E00816080936E001092810080918100EF
:100C800082608093810080918100816080938100E7
:100C900080918000816080938000809191008260CB
:100CA0008093910080919100816080939100809168
:100CB00090008160809390008091C1008460809357
:100CC000C1008091C10082608093C1008091C10009
:100CD00081608093C1008091C30081608093C300D4
:100CE0008091C00082608093C0008091C2008160CA
:100CF0008093C20080917A00846080937A00809112
:100D00007A00826080937A0080917A00816080937B
:100D10007A0080917A00806880937A0010929A011C
:100D200010928101109282018091D700816080939E
:100D3000D70080EA8093D80089B5806189BD89B5E4
:100D4000826089BD09B400FEFDCF61E070E080E003
:100D500090E00E942D018091D8008F7C806180936B
:100D6000D8008091E000807F8093E0008091E100D6
:100D70008E7E8093E1008DE08093E200559A209A68
:100D80008FEF9FEF9093390180933801C0E0D0E05E
:100D900045E050E065E271E08CE291E00E942402BF
:100DA00060ED77E080E090E00E942D01209781F3D4
:100DB0000E940000EDCFEE0FFF1F0590F491E02D93
:060DC0000994F894FFCF36
:100DC600FFFFFFFF00E10000000000000000000040
:100DD600A9022402CA02BF021003CE02EC0200C11D
:0C0DE600808100000048656C6C6F00000C
:00000001FF
